{
  "_format": "hh-sol-artifact-1",
  "contractName": "Berry",
  "sourceName": "contracts/Berry.sol",
  "abi": [
    {
      "inputs": [
        {
          "internalType": "uint256",
          "name": "providerID",
          "type": "uint256"
        },
        {
          "internalType": "string",
          "name": "name",
          "type": "string"
        },
        {
          "internalType": "string",
          "name": "description",
          "type": "string"
        },
        {
          "internalType": "uint256",
          "name": "recurrence",
          "type": "uint256"
        },
        {
          "internalType": "uint256",
          "name": "price",
          "type": "uint256"
        },
        {
          "internalType": "uint8",
          "name": "maxMembers",
          "type": "uint8"
        }
      ],
      "name": "addPlan",
      "outputs": [
        {
          "internalType": "uint256",
          "name": "planID",
          "type": "uint256"
        }
      ],
      "stateMutability": "nonpayable",
      "type": "function"
    },
    {
      "inputs": [
        {
          "internalType": "uint256",
          "name": "providerID",
          "type": "uint256"
        },
        {
          "internalType": "uint256",
          "name": "planID",
          "type": "uint256"
        },
        {
          "internalType": "string",
          "name": "groupName",
          "type": "string"
        }
      ],
      "name": "createGroup",
      "outputs": [
        {
          "internalType": "uint256",
          "name": "groupID",
          "type": "uint256"
        }
      ],
      "stateMutability": "payable",
      "type": "function"
    },
    {
      "inputs": [
        {
          "internalType": "string",
          "name": "name",
          "type": "string"
        },
        {
          "internalType": "string",
          "name": "imageURL",
          "type": "string"
        },
        {
          "internalType": "address payable",
          "name": "owner",
          "type": "address"
        }
      ],
      "name": "createProvider",
      "outputs": [
        {
          "internalType": "uint256",
          "name": "providerID",
          "type": "uint256"
        }
      ],
      "stateMutability": "nonpayable",
      "type": "function"
    },
    {
      "inputs": [
        {
          "internalType": "address",
          "name": "userAdress",
          "type": "address"
        }
      ],
      "name": "getAllUserGroups",
      "outputs": [
        {
          "components": [
            {
              "internalType": "uint256",
              "name": "groupID",
              "type": "uint256"
            },
            {
              "internalType": "string",
              "name": "name",
              "type": "string"
            },
            {
              "internalType": "uint256",
              "name": "totalBalance",
              "type": "uint256"
            },
            {
              "internalType": "uint256",
              "name": "planID",
              "type": "uint256"
            },
            {
              "internalType": "uint256",
              "name": "planProviderID",
              "type": "uint256"
            },
            {
              "internalType": "uint256",
              "name": "numMembers",
              "type": "uint256"
            },
            {
              "internalType": "bool",
              "name": "initialized",
              "type": "bool"
            },
            {
              "internalType": "uint256",
              "name": "creationTimestamp",
              "type": "uint256"
            },
            {
              "internalType": "uint256",
              "name": "lastPaymentTimestamp",
              "type": "uint256"
            }
          ],
          "internalType": "struct Berry.Group[]",
          "name": "userGroups",
          "type": "tuple[]"
        }
      ],
      "stateMutability": "view",
      "type": "function"
    },
    {
      "inputs": [],
      "name": "getBio",
      "outputs": [
        {
          "internalType": "string",
          "name": "",
          "type": "string"
        }
      ],
      "stateMutability": "view",
      "type": "function"
    },
    {
      "inputs": [],
      "name": "getName",
      "outputs": [
        {
          "internalType": "string",
          "name": "",
          "type": "string"
        }
      ],
      "stateMutability": "view",
      "type": "function"
    },
    {
      "inputs": [],
      "name": "getUserBerries",
      "outputs": [
        {
          "internalType": "uint256",
          "name": "",
          "type": "uint256"
        }
      ],
      "stateMutability": "view",
      "type": "function"
    },
    {
      "inputs": [
        {
          "internalType": "uint256",
          "name": "",
          "type": "uint256"
        }
      ],
      "name": "groups",
      "outputs": [
        {
          "internalType": "uint256",
          "name": "groupID",
          "type": "uint256"
        },
        {
          "internalType": "string",
          "name": "name",
          "type": "string"
        },
        {
          "internalType": "uint256",
          "name": "totalBalance",
          "type": "uint256"
        },
        {
          "internalType": "uint256",
          "name": "planID",
          "type": "uint256"
        },
        {
          "internalType": "uint256",
          "name": "planProviderID",
          "type": "uint256"
        },
        {
          "internalType": "uint256",
          "name": "numMembers",
          "type": "uint256"
        },
        {
          "internalType": "bool",
          "name": "initialized",
          "type": "bool"
        },
        {
          "internalType": "uint256",
          "name": "creationTimestamp",
          "type": "uint256"
        },
        {
          "internalType": "uint256",
          "name": "lastPaymentTimestamp",
          "type": "uint256"
        }
      ],
      "stateMutability": "view",
      "type": "function"
    },
    {
      "inputs": [
        {
          "internalType": "address",
          "name": "",
          "type": "address"
        },
        {
          "internalType": "uint256",
          "name": "",
          "type": "uint256"
        }
      ],
      "name": "groupsPerUser",
      "outputs": [
        {
          "internalType": "uint256",
          "name": "groupID",
          "type": "uint256"
        },
        {
          "internalType": "string",
          "name": "name",
          "type": "string"
        },
        {
          "internalType": "uint256",
          "name": "totalBalance",
          "type": "uint256"
        },
        {
          "internalType": "uint256",
          "name": "planID",
          "type": "uint256"
        },
        {
          "internalType": "uint256",
          "name": "planProviderID",
          "type": "uint256"
        },
        {
          "internalType": "uint256",
          "name": "numMembers",
          "type": "uint256"
        },
        {
          "internalType": "bool",
          "name": "initialized",
          "type": "bool"
        },
        {
          "internalType": "uint256",
          "name": "creationTimestamp",
          "type": "uint256"
        },
        {
          "internalType": "uint256",
          "name": "lastPaymentTimestamp",
          "type": "uint256"
        }
      ],
      "stateMutability": "view",
      "type": "function"
    },
    {
      "inputs": [
        {
          "internalType": "uint256",
          "name": "groupID",
          "type": "uint256"
        }
      ],
      "name": "joinGroup",
      "outputs": [
        {
          "internalType": "bool",
          "name": "",
          "type": "bool"
        }
      ],
      "stateMutability": "payable",
      "type": "function"
    },
    {
      "inputs": [
        {
          "internalType": "uint256",
          "name": "groupID",
          "type": "uint256"
        }
      ],
      "name": "leaveGroup",
      "outputs": [
        {
          "internalType": "bool",
          "name": "",
          "type": "bool"
        }
      ],
      "stateMutability": "nonpayable",
      "type": "function"
    },
    {
      "inputs": [
        {
          "internalType": "uint256",
          "name": "",
          "type": "uint256"
        },
        {
          "internalType": "uint256",
          "name": "",
          "type": "uint256"
        }
      ],
      "name": "membersPerGroup",
      "outputs": [
        {
          "internalType": "uint256",
          "name": "groupID",
          "type": "uint256"
        },
        {
          "components": [
            {
              "internalType": "address",
              "name": "owner",
              "type": "address"
            },
            {
              "internalType": "string",
              "name": "name",
              "type": "string"
            },
            {
              "internalType": "uint256",
              "name": "berries",
              "type": "uint256"
            },
            {
              "internalType": "uint256",
              "name": "numGroups",
              "type": "uint256"
            },
            {
              "internalType": "string",
              "name": "imageURL",
              "type": "string"
            },
            {
              "internalType": "string",
              "name": "description",
              "type": "string"
            }
          ],
          "internalType": "struct Berry.User",
          "name": "member",
          "type": "tuple"
        },
        {
          "internalType": "uint256",
          "name": "balance",
          "type": "uint256"
        }
      ],
      "stateMutability": "view",
      "type": "function"
    },
    {
      "inputs": [],
      "name": "numGroups",
      "outputs": [
        {
          "internalType": "uint256",
          "name": "",
          "type": "uint256"
        }
      ],
      "stateMutability": "view",
      "type": "function"
    },
    {
      "inputs": [],
      "name": "numProviders",
      "outputs": [
        {
          "internalType": "uint256",
          "name": "",
          "type": "uint256"
        }
      ],
      "stateMutability": "view",
      "type": "function"
    },
    {
      "inputs": [],
      "name": "numUsers",
      "outputs": [
        {
          "internalType": "uint256",
          "name": "",
          "type": "uint256"
        }
      ],
      "stateMutability": "view",
      "type": "function"
    },
    {
      "inputs": [
        {
          "internalType": "uint256",
          "name": "groupID",
          "type": "uint256"
        }
      ],
      "name": "payRecurrent",
      "outputs": [],
      "stateMutability": "payable",
      "type": "function"
    },
    {
      "inputs": [
        {
          "internalType": "uint256",
          "name": "",
          "type": "uint256"
        },
        {
          "internalType": "uint256",
          "name": "",
          "type": "uint256"
        }
      ],
      "name": "plansPerProvider",
      "outputs": [
        {
          "internalType": "uint256",
          "name": "providerID",
          "type": "uint256"
        },
        {
          "internalType": "string",
          "name": "name",
          "type": "string"
        },
        {
          "internalType": "string",
          "name": "description",
          "type": "string"
        },
        {
          "internalType": "uint256",
          "name": "recurrence",
          "type": "uint256"
        },
        {
          "internalType": "uint256",
          "name": "price",
          "type": "uint256"
        },
        {
          "internalType": "bool",
          "name": "active",
          "type": "bool"
        },
        {
          "internalType": "uint8",
          "name": "maxMembers",
          "type": "uint8"
        },
        {
          "internalType": "uint256",
          "name": "pricePerMember",
          "type": "uint256"
        }
      ],
      "stateMutability": "view",
      "type": "function"
    },
    {
      "inputs": [
        {
          "internalType": "uint256",
          "name": "",
          "type": "uint256"
        }
      ],
      "name": "providers",
      "outputs": [
        {
          "internalType": "uint256",
          "name": "providerID",
          "type": "uint256"
        },
        {
          "internalType": "string",
          "name": "name",
          "type": "string"
        },
        {
          "internalType": "string",
          "name": "imageURL",
          "type": "string"
        },
        {
          "internalType": "address",
          "name": "serviceOwner",
          "type": "address"
        },
        {
          "internalType": "uint256",
          "name": "numPlans",
          "type": "uint256"
        }
      ],
      "stateMutability": "view",
      "type": "function"
    },
    {
      "inputs": [
        {
          "internalType": "string",
          "name": "name",
          "type": "string"
        },
        {
          "internalType": "string",
          "name": "imageURL",
          "type": "string"
        },
        {
          "internalType": "string",
          "name": "description",
          "type": "string"
        }
      ],
      "name": "register",
      "outputs": [],
      "stateMutability": "nonpayable",
      "type": "function"
    },
    {
      "inputs": [
        {
          "internalType": "string",
          "name": "bio",
          "type": "string"
        }
      ],
      "name": "setBio",
      "outputs": [],
      "stateMutability": "nonpayable",
      "type": "function"
    },
    {
      "inputs": [
        {
          "internalType": "string",
          "name": "name",
          "type": "string"
        }
      ],
      "name": "setName",
      "outputs": [],
      "stateMutability": "nonpayable",
      "type": "function"
    },
    {
      "inputs": [
        {
          "internalType": "uint256",
          "name": "",
          "type": "uint256"
        },
        {
          "internalType": "address",
          "name": "",
          "type": "address"
        }
      ],
      "name": "userGroupMembership",
      "outputs": [
        {
          "internalType": "uint256",
          "name": "groupID",
          "type": "uint256"
        },
        {
          "components": [
            {
              "internalType": "address",
              "name": "owner",
              "type": "address"
            },
            {
              "internalType": "string",
              "name": "name",
              "type": "string"
            },
            {
              "internalType": "uint256",
              "name": "berries",
              "type": "uint256"
            },
            {
              "internalType": "uint256",
              "name": "numGroups",
              "type": "uint256"
            },
            {
              "internalType": "string",
              "name": "imageURL",
              "type": "string"
            },
            {
              "internalType": "string",
              "name": "description",
              "type": "string"
            }
          ],
          "internalType": "struct Berry.User",
          "name": "member",
          "type": "tuple"
        },
        {
          "internalType": "uint256",
          "name": "balance",
          "type": "uint256"
        }
      ],
      "stateMutability": "view",
      "type": "function"
    },
    {
      "inputs": [
        {
          "internalType": "address",
          "name": "",
          "type": "address"
        }
      ],
      "name": "users",
      "outputs": [
        {
          "internalType": "address",
          "name": "owner",
          "type": "address"
        },
        {
          "internalType": "string",
          "name": "name",
          "type": "string"
        },
        {
          "internalType": "uint256",
          "name": "berries",
          "type": "uint256"
        },
        {
          "internalType": "uint256",
          "name": "numGroups",
          "type": "uint256"
        },
        {
          "internalType": "string",
          "name": "imageURL",
          "type": "string"
        },
        {
          "internalType": "string",
          "name": "description",
          "type": "string"
        }
      ],
      "stateMutability": "view",
      "type": "function"
    }
  ],
  "bytecode": "0x608060405234801561001057600080fd5b50614446806100206000396000f3fe6080604052600436106101405760003560e01c80635571d7fe116100b6578063ed03b3001161006f578063ed03b300146104e5578063eed02e4b14610510578063f7898dae14610540578063fa165e8f14610570578063fb7e06d81461059b578063ff18666b146105c457610140565b80635571d7fe1461038e5780637558f32d146103cd57806383324e8c1461040a57806396324bd414610435578063a87430ba1461047a578063c47f0027146104bc57610140565b806328bbb31b1161010857806328bbb31b1461022657806333471df51461026557806335932a2c146102a25780633fa303c9146102df5780634cd08d031461032457806350f3fc811461034d57610140565b80631666f0e11461014557806317d7de7c1461018957806319a50f49146101b45780631a3f73a0146101df57806322f50b141461020a575b600080fd5b34801561015157600080fd5b5061016c60048036038101906101679190613633565b610601565b604051610180989796959493929190613c85565b60405180910390f35b34801561019557600080fd5b5061019e610780565b6040516101ab9190613b27565b60405180910390f35b3480156101c057600080fd5b506101c9610858565b6040516101d69190613c09565b60405180910390f35b3480156101eb57600080fd5b506101f461085e565b6040516102019190613c09565b60405180910390f35b610224600480360381019061021f9190613501565b6108ad565b005b34801561023257600080fd5b5061024d6004803603810190610248919061352e565b610b71565b60405161025c93929190613da5565b60405180910390f35b34801561027157600080fd5b5061028c60048036038101906102879190613501565b610dd2565b6040516102999190613b0c565b60405180910390f35b3480156102ae57600080fd5b506102c960048036038101906102c4919061356e565b610f98565b6040516102d69190613c09565b60405180910390f35b3480156102eb57600080fd5b5061030660048036038101906103019190613346565b611135565b60405161031b99989796959493929190613d11565b60405180910390f35b34801561033057600080fd5b5061034b6004803603810190610346919061345a565b611225565b005b34801561035957600080fd5b50610374600480360381019061036f9190613501565b6112d1565b604051610385959493929190613c24565b60405180910390f35b34801561039a57600080fd5b506103b560048036038101906103b09190613633565b611437565b6040516103c493929190613da5565b60405180910390f35b3480156103d957600080fd5b506103f460048036038101906103ef9190613319565b611698565b6040516104019190613aea565b60405180910390f35b34801561041657600080fd5b5061041f6118f0565b60405161042c9190613c09565b60405180910390f35b34801561044157600080fd5b5061045c60048036038101906104579190613501565b6118f6565b60405161047199989796959493929190613d11565b60405180910390f35b34801561048657600080fd5b506104a1600480360381019061049c9190613319565b6119d9565b6040516104b396959493929190613a74565b60405180910390f35b3480156104c857600080fd5b506104e360048036038101906104de9190613386565b611bcd565b005b3480156104f157600080fd5b506104fa611c2d565b6040516105079190613c09565b60405180910390f35b61052a60048036038101906105259190613501565b611c33565b6040516105379190613b0c565b60405180910390f35b61055a60048036038101906105559190613673565b6124a1565b6040516105679190613c09565b60405180910390f35b34801561057c57600080fd5b50610585612c54565b6040516105929190613b27565b60405180910390f35b3480156105a757600080fd5b506105c260048036038101906105bd9190613386565b612d2c565b005b3480156105d057600080fd5b506105eb60048036038101906105e691906133cf565b612d8c565b6040516105f89190613c09565b60405180910390f35b600a6020528160005260406000206020528060005260406000206000915091505080600001549080600101805461063790614087565b80601f016020809104026020016040519081016040528092919081815260200182805461066390614087565b80156106b05780601f10610685576101008083540402835291602001916106b0565b820191906000526020600020905b81548152906001019060200180831161069357829003601f168201915b5050505050908060020180546106c590614087565b80601f01602080910402602001604051908101604052809291908181526020018280546106f190614087565b801561073e5780601f106107135761010080835404028352916020019161073e565b820191906000526020600020905b81548152906001019060200180831161072157829003601f168201915b5050505050908060030154908060040154908060050160009054906101000a900460ff16908060050160019054906101000a900460ff16908060060154905088565b60606000600560003373ffffffffffffffffffffffffffffffffffffffff1673ffffffffffffffffffffffffffffffffffffffff16815260200190815260200160002090508060010180546107d490614087565b80601f016020809104026020016040519081016040528092919081815260200182805461080090614087565b801561084d5780601f106108225761010080835404028352916020019161084d565b820191906000526020600020905b81548152906001019060200180831161083057829003601f168201915b505050505091505090565b60025481565b600080600560003373ffffffffffffffffffffffffffffffffffffffff1673ffffffffffffffffffffffffffffffffffffffff1681526020019081526020016000209050806002015491505090565b60006004600083815260200190815260200160002090506000600a60008360040154815260200190815260200160002060008360030154815260200190815260200160002090508160060160009054906101000a900460ff16610945576040517f08c379a000000000000000000000000000000000000000000000000000000000815260040161093c90613ba9565b60405180910390fd5b806006015434101561098c576040517f08c379a000000000000000000000000000000000000000000000000000000000815260040161098390613b49565b60405180910390fd5b60006006600085815260200190815260200160002060003373ffffffffffffffffffffffffffffffffffffffff1673ffffffffffffffffffffffffffffffffffffffff168152602001908152602001600020905060008260060154346109f29190613f80565b90506000811115610a68578260060154826007016000828254610a159190613e9f565b925050819055503373ffffffffffffffffffffffffffffffffffffffff166108fc829081150290604051600060405180830381858888f19350505050158015610a62573d6000803e3d6000fd5b50610a72565b3482600701819055505b8260060154846002016000828254610a8a9190613e9f565b925050819055508260050160019054906101000a900460ff1660ff1684600501541415610b6a5742610ac485600801548560030154612e43565b1015610b69576000600360008560000154815260200190815260200160002090508060030160009054906101000a900473ffffffffffffffffffffffffffffffffffffffff1673ffffffffffffffffffffffffffffffffffffffff166108fc86600201549081150290604051600060405180830381858888f19350505050158015610b53573d6000803e3d6000fd5b5060008560020181905550428560080181905550505b5b5050505050565b600660205281600052604060002060205280600052604060002060009150915050806000015490806001016040518060c00160405290816000820160009054906101000a900473ffffffffffffffffffffffffffffffffffffffff1673ffffffffffffffffffffffffffffffffffffffff1673ffffffffffffffffffffffffffffffffffffffff168152602001600182018054610c0d90614087565b80601f0160208091040260200160405190810160405280929190818152602001828054610c3990614087565b8015610c865780601f10610c5b57610100808354040283529160200191610c86565b820191906000526020600020905b815481529060010190602001808311610c6957829003601f168201915b505050505081526020016002820154815260200160038201548152602001600482018054610cb390614087565b80601f0160208091040260200160405190810160405280929190818152602001828054610cdf90614087565b8015610d2c5780601f10610d0157610100808354040283529160200191610d2c565b820191906000526020600020905b815481529060010190602001808311610d0f57829003601f168201915b50505050508152602001600582018054610d4590614087565b80601f0160208091040260200160405190810160405280929190818152602001828054610d7190614087565b8015610dbe5780601f10610d9357610100808354040283529160200191610dbe565b820191906000526020600020905b815481529060010190602001808311610da157829003601f168201915b505050505081525050908060070154905083565b6000806004600084815260200190815260200160002090508060060160009054906101000a900460ff16610e3b576040517f08c379a0000000000000000000000000000000000000000000000000000000008152600401610e3290613ba9565b60405180910390fd5b6006600084815260200190815260200160002060003373ffffffffffffffffffffffffffffffffffffffff1673ffffffffffffffffffffffffffffffffffffffff16815260200190815260200160002060008082016000905560018201600080820160006101000a81549073ffffffffffffffffffffffffffffffffffffffff0219169055600182016000610ed09190613097565b60028201600090556003820160009055600482016000610ef09190613097565b600582016000610f009190613097565b505060078201600090555050806005016000815480929190610f219061405d565b91905055506000600560003373ffffffffffffffffffffffffffffffffffffffff1673ffffffffffffffffffffffffffffffffffffffff1681526020019081526020016000209050806003016000815480929190610f7e9061405d565b9190505550610f8d3385612e74565b600192505050919050565b6000806003600089815260200190815260200160002090508060030160009054906101000a900473ffffffffffffffffffffffffffffffffffffffff1673ffffffffffffffffffffffffffffffffffffffff163373ffffffffffffffffffffffffffffffffffffffff1614611042576040517f08c379a000000000000000000000000000000000000000000000000000000000815260040161103990613bc9565b60405180910390fd5b806004015491506000600a60008a815260200190815260200160002060008481526020019081526020016000209050888160000181905550878160010190805190602001906110929291906130d7565b50868160020190805190602001906110ab9291906130d7565b5085816003018190555084816004018190555060018160050160006101000a81548160ff021916908315150217905550838160050160016101000a81548160ff021916908360ff1602179055508360ff16856111079190613ef5565b8160060181905550816004016000815480929190611124906140ea565b919050555050509695505050505050565b60076020528160005260406000206020528060005260406000206000915091505080600001549080600101805461116b90614087565b80601f016020809104026020016040519081016040528092919081815260200182805461119790614087565b80156111e45780601f106111b9576101008083540402835291602001916111e4565b820191906000526020600020905b8154815290600101906020018083116111c757829003601f168201915b5050505050908060020154908060030154908060040154908060050154908060060160009054906101000a900460ff16908060070154908060080154905089565b6000600560003373ffffffffffffffffffffffffffffffffffffffff1673ffffffffffffffffffffffffffffffffffffffff1681526020019081526020016000209050838160010190805190602001906112809291906130d7565b50828160040190805190602001906112999291906130d7565b50818160050190805190602001906112b29291906130d7565b50600260008154809291906112c6906140ea565b919050555050505050565b60036020528060005260406000206000915090508060000154908060010180546112fa90614087565b80601f016020809104026020016040519081016040528092919081815260200182805461132690614087565b80156113735780601f1061134857610100808354040283529160200191611373565b820191906000526020600020905b81548152906001019060200180831161135657829003601f168201915b50505050509080600201805461138890614087565b80601f01602080910402602001604051908101604052809291908181526020018280546113b490614087565b80156114015780601f106113d657610100808354040283529160200191611401565b820191906000526020600020905b8154815290600101906020018083116113e457829003601f168201915b5050505050908060030160009054906101000a900473ffffffffffffffffffffffffffffffffffffffff16908060040154905085565b600960205281600052604060002060205280600052604060002060009150915050806000015490806001016040518060c00160405290816000820160009054906101000a900473ffffffffffffffffffffffffffffffffffffffff1673ffffffffffffffffffffffffffffffffffffffff1673ffffffffffffffffffffffffffffffffffffffff1681526020016001820180546114d390614087565b80601f01602080910402602001604051908101604052809291908181526020018280546114ff90614087565b801561154c5780601f106115215761010080835404028352916020019161154c565b820191906000526020600020905b81548152906001019060200180831161152f57829003601f168201915b50505050508152602001600282015481526020016003820154815260200160048201805461157990614087565b80601f01602080910402602001604051908101604052809291908181526020018280546115a590614087565b80156115f25780601f106115c7576101008083540402835291602001916115f2565b820191906000526020600020905b8154815290600101906020018083116115d557829003601f168201915b5050505050815260200160058201805461160b90614087565b80601f016020809104026020016040519081016040528092919081815260200182805461163790614087565b80156116845780601f1061165957610100808354040283529160200191611684565b820191906000526020600020905b81548152906001019060200180831161166757829003601f168201915b505050505081525050908060070154905083565b60606000600860008473ffffffffffffffffffffffffffffffffffffffff1673ffffffffffffffffffffffffffffffffffffffff1681526020019081526020016000209050808054905067ffffffffffffffff8111156116fb576116fa61421e565b5b60405190808252806020026020018201604052801561173457816020015b61172161315d565b8152602001906001900390816117195790505b50915060005b81805490508110156118e957600082828154811061175b5761175a6141ef565b5b90600052602060002001549050600760008673ffffffffffffffffffffffffffffffffffffffff1673ffffffffffffffffffffffffffffffffffffffff168152602001908152602001600020600082815260200190815260200160002060405180610120016040529081600082015481526020016001820180546117de90614087565b80601f016020809104026020016040519081016040528092919081815260200182805461180a90614087565b80156118575780601f1061182c57610100808354040283529160200191611857565b820191906000526020600020905b81548152906001019060200180831161183a57829003601f168201915b50505050508152602001600282015481526020016003820154815260200160048201548152602001600582015481526020016006820160009054906101000a900460ff16151515158152602001600782015481526020016008820154815250508483815181106118ca576118c96141ef565b5b60200260200101819052505080806118e1906140ea565b91505061173a565b5050919050565b60015481565b600460205280600052604060002060009150905080600001549080600101805461191f90614087565b80601f016020809104026020016040519081016040528092919081815260200182805461194b90614087565b80156119985780601f1061196d57610100808354040283529160200191611998565b820191906000526020600020905b81548152906001019060200180831161197b57829003601f168201915b5050505050908060020154908060030154908060040154908060050154908060060160009054906101000a900460ff16908060070154908060080154905089565b60056020528060005260406000206000915090508060000160009054906101000a900473ffffffffffffffffffffffffffffffffffffffff1690806001018054611a2290614087565b80601f0160208091040260200160405190810160405280929190818152602001828054611a4e90614087565b8015611a9b5780601f10611a7057610100808354040283529160200191611a9b565b820191906000526020600020905b815481529060010190602001808311611a7e57829003601f168201915b505050505090806002015490806003015490806004018054611abc90614087565b80601f0160208091040260200160405190810160405280929190818152602001828054611ae890614087565b8015611b355780601f10611b0a57610100808354040283529160200191611b35565b820191906000526020600020905b815481529060010190602001808311611b1857829003601f168201915b505050505090806005018054611b4a90614087565b80601f0160208091040260200160405190810160405280929190818152602001828054611b7690614087565b8015611bc35780601f10611b9857610100808354040283529160200191611bc3565b820191906000526020600020905b815481529060010190602001808311611ba657829003601f168201915b5050505050905086565b6000600560003373ffffffffffffffffffffffffffffffffffffffff1673ffffffffffffffffffffffffffffffffffffffff168152602001908152602001600020905081816001019080519060200190611c289291906130d7565b505050565b60005481565b6000806004600084815260200190815260200160002090506000600a60008360040154815260200190815260200160002060008360030154815260200190815260200160002090508160060160009054906101000a900460ff16611ccc576040517f08c379a0000000000000000000000000000000000000000000000000000000008152600401611cc390613ba9565b60405180910390fd5b8060050160019054906101000a900460ff1660ff16826005015410611d26576040517f08c379a0000000000000000000000000000000000000000000000000000000008152600401611d1d90613be9565b60405180910390fd5b8060060154341015611d6d576040517f08c379a0000000000000000000000000000000000000000000000000000000008152600401611d6490613b49565b60405180910390fd5b60008260050154905060006009600087815260200190815260200160002060008381526020019081526020016000209050600560003373ffffffffffffffffffffffffffffffffffffffff1673ffffffffffffffffffffffffffffffffffffffff168152602001908152602001600020816001016000820160009054906101000a900473ffffffffffffffffffffffffffffffffffffffff168160000160006101000a81548173ffffffffffffffffffffffffffffffffffffffff021916908373ffffffffffffffffffffffffffffffffffffffff1602179055506001820181600101908054611e5c90614087565b611e679291906131ab565b5060028201548160020155600382015481600301556004820181600401908054611e9090614087565b611e9b9291906131ab565b506005820181600501908054611eb090614087565b611ebb9291906131ab565b50905050858160000181905550611ed0613035565b6000600560003373ffffffffffffffffffffffffffffffffffffffff1673ffffffffffffffffffffffffffffffffffffffff1681526020019081526020016000209050806003016000815480929190611f28906140ea565b91905055506000846006015434611f3f9190613f80565b90506000811115611fb5578460060154836007016000828254611f629190613e9f565b925050819055503373ffffffffffffffffffffffffffffffffffffffff166108fc829081150290604051600060405180830381858888f19350505050158015611faf573d6000803e3d6000fd5b50611fbf565b3483600701819055505b8260070154866002016000828254611fd79190613e9f565b9250508190555082600960008a815260200190815260200160002060008681526020019081526020016000206000820154816000015560018201816001016000820160009054906101000a900473ffffffffffffffffffffffffffffffffffffffff168160000160006101000a81548173ffffffffffffffffffffffffffffffffffffffff021916908373ffffffffffffffffffffffffffffffffffffffff160217905550600182018160010190805461209090614087565b61209b9291906131ab565b50600282015481600201556003820154816003015560048201816004019080546120c490614087565b6120cf9291906131ab565b5060058201816005019080546120e490614087565b6120ef9291906131ab565b5050506007820154816007015590505082600660008a815260200190815260200160002060003373ffffffffffffffffffffffffffffffffffffffff1673ffffffffffffffffffffffffffffffffffffffff1681526020019081526020016000206000820154816000015560018201816001016000820160009054906101000a900473ffffffffffffffffffffffffffffffffffffffff168160000160006101000a81548173ffffffffffffffffffffffffffffffffffffffff021916908373ffffffffffffffffffffffffffffffffffffffff16021790555060018201816001019080546121dd90614087565b6121e89291906131ab565b506002820154816002015560038201548160030155600482018160040190805461221190614087565b61221c9291906131ab565b50600582018160050190805461223190614087565b61223c9291906131ab565b50505060078201548160070155905050856005016000815480929190612261906140ea565b91905055508460050160019054906101000a900460ff1660ff168660050154141561233f574261229987600801548760030154612e43565b101561233e576000600360008760000154815260200190815260200160002090508060030160009054906101000a900473ffffffffffffffffffffffffffffffffffffffff1673ffffffffffffffffffffffffffffffffffffffff166108fc88600201549081150290604051600060405180830381858888f19350505050158015612328573d6000803e3d6000fd5b5060008760020181905550428760080181905550505b5b85600760003373ffffffffffffffffffffffffffffffffffffffff1673ffffffffffffffffffffffffffffffffffffffff16815260200190815260200160002060008a81526020019081526020016000206000820154816000015560018201816001019080546123ae90614087565b6123b99291906131ab565b50600282015481600201556003820154816003015560048201548160040155600582015481600501556006820160009054906101000a900460ff168160060160006101000a81548160ff02191690831515021790555060078201548160070155600882015481600801559050506000600860003373ffffffffffffffffffffffffffffffffffffffff1673ffffffffffffffffffffffffffffffffffffffff1681526020019081526020016000209050808990806001815401808255809150506001900390600052602060002001600090919091909150556001975050505050505050919050565b600080600a60008681526020019081526020016000206000858152602001908152602001600020905060008160050160019054906101000a900460ff1660ff1611612521576040517f08c379a000000000000000000000000000000000000000000000000000000000815260040161251890613b89565b60405180910390fd5b8060060154341015612568576040517f08c379a000000000000000000000000000000000000000000000000000000000815260040161255f90613b49565b60405180910390fd5b6001600081548092919061257b906140ea565b9190505591506000600460008481526020019081526020016000209050828160000181905550848160030181905550858160040181905550838160010190805190602001906125cb9291906130d7565b5042816007018190555042816008018190555060008160050154905060006009600086815260200190815260200160002060008381526020019081526020016000209050600560003373ffffffffffffffffffffffffffffffffffffffff1673ffffffffffffffffffffffffffffffffffffffff168152602001908152602001600020816001016000820160009054906101000a900473ffffffffffffffffffffffffffffffffffffffff168160000160006101000a81548173ffffffffffffffffffffffffffffffffffffffff021916908373ffffffffffffffffffffffffffffffffffffffff16021790555060018201816001019080546126cd90614087565b6126d89291906131ab565b506002820154816002015560038201548160030155600482018160040190805461270190614087565b61270c9291906131ab565b50600582018160050190805461272190614087565b61272c9291906131ab565b509050508481600001819055506000600560003373ffffffffffffffffffffffffffffffffffffffff1673ffffffffffffffffffffffffffffffffffffffff1681526020019081526020016000209050806003016000815480929190612791906140ea565b919050555061279e613035565b60008560060154346127b09190613f80565b905060008111156128265785600601548360070160008282546127d39190613e9f565b925050819055503373ffffffffffffffffffffffffffffffffffffffff166108fc829081150290604051600060405180830381858888f19350505050158015612820573d6000803e3d6000fd5b50612830565b3483600701819055505b826009600089815260200190815260200160002060008681526020019081526020016000206000820154816000015560018201816001016000820160009054906101000a900473ffffffffffffffffffffffffffffffffffffffff168160000160006101000a81548173ffffffffffffffffffffffffffffffffffffffff021916908373ffffffffffffffffffffffffffffffffffffffff16021790555060018201816001019080546128e290614087565b6128ed9291906131ab565b506002820154816002015560038201548160030155600482018160040190805461291690614087565b6129219291906131ab565b50600582018160050190805461293690614087565b6129419291906131ab565b50505060078201548160070155905050826006600089815260200190815260200160002060003373ffffffffffffffffffffffffffffffffffffffff1673ffffffffffffffffffffffffffffffffffffffff1681526020019081526020016000206000820154816000015560018201816001016000820160009054906101000a900473ffffffffffffffffffffffffffffffffffffffff168160000160006101000a81548173ffffffffffffffffffffffffffffffffffffffff021916908373ffffffffffffffffffffffffffffffffffffffff1602179055506001820181600101908054612a2f90614087565b612a3a9291906131ab565b5060028201548160020155600382015481600301556004820181600401908054612a6390614087565b612a6e9291906131ab565b506005820181600501908054612a8390614087565b612a8e9291906131ab565b50505060078201548160070155905050846005016000815480929190612ab3906140ea565b91905055508260070154856002016000828254612ad09190613e9f565b9250508190555060018560060160006101000a81548160ff02191690831515021790555084600760003373ffffffffffffffffffffffffffffffffffffffff1673ffffffffffffffffffffffffffffffffffffffff1681526020019081526020016000206000898152602001908152602001600020600082015481600001556001820181600101908054612b6390614087565b612b6e9291906131ab565b50600282015481600201556003820154816003015560048201548160040155600582015481600501556006820160009054906101000a900460ff168160060160006101000a81548160ff02191690831515021790555060078201548160070155600882015481600801559050506000600860003373ffffffffffffffffffffffffffffffffffffffff1673ffffffffffffffffffffffffffffffffffffffff168152602001908152602001600020905080889080600181540180825580915050600190039060005260206000200160009091909190915055505050505050509392505050565b60606000600560003373ffffffffffffffffffffffffffffffffffffffff1673ffffffffffffffffffffffffffffffffffffffff1681526020019081526020016000209050806005018054612ca890614087565b80601f0160208091040260200160405190810160405280929190818152602001828054612cd490614087565b8015612d215780601f10612cf657610100808354040283529160200191612d21565b820191906000526020600020905b815481529060010190602001808311612d0457829003601f168201915b505050505091505090565b6000600560003373ffffffffffffffffffffffffffffffffffffffff1673ffffffffffffffffffffffffffffffffffffffff168152602001908152602001600020905081816005019080519060200190612d879291906130d7565b505050565b6000806000815480929190612da0906140ea565b919050559050600060036000838152602001908152602001600020905081816000018190555084816001019080519060200190612dde9291906130d7565b5083816002019080519060200190612df79291906130d7565b50828160030160006101000a81548173ffffffffffffffffffffffffffffffffffffffff021916908373ffffffffffffffffffffffffffffffffffffffff160217905550509392505050565b60006201518082612e549190613f26565b83612e5f9190613e9f565b905082811015612e6e57600080fd5b92915050565b6000600860008473ffffffffffffffffffffffffffffffffffffffff1673ffffffffffffffffffffffffffffffffffffffff168152602001908152602001600020905060007fffffffffffffffffffffffffffffffffffffffffffffffffffffffffffffffff905060005b8280549050811015612f275783838281548110612eff57612efe6141ef565b5b90600052602060002001541415612f14578091505b8080612f1f906140ea565b915050612edf565b507fffffffffffffffffffffffffffffffffffffffffffffffffffffffffffffffff811415612f8b576040517f08c379a0000000000000000000000000000000000000000000000000000000008152600401612f8290613b69565b60405180910390fd5b60008190505b60018380549050612fa29190613f80565b8110156130075782600182612fb79190613e9f565b81548110612fc857612fc76141ef565b5b9060005260206000200154838281548110612fe657612fe56141ef565b5b90600052602060002001819055508080612fff906140ea565b915050612f91565b5081805480613019576130186141c0565b5b6001900381819060005260206000200160009055905550505050565b6000600560003373ffffffffffffffffffffffffffffffffffffffff1673ffffffffffffffffffffffffffffffffffffffff1681526020019081526020016000209050600581600201600082825461308d9190613e9f565b9250508190555050565b5080546130a390614087565b6000825580601f106130b557506130d4565b601f0160209004906000526020600020908101906130d39190613238565b5b50565b8280546130e390614087565b90600052602060002090601f016020900481019282613105576000855561314c565b82601f1061311e57805160ff191683800117855561314c565b8280016001018555821561314c579182015b8281111561314b578251825591602001919060010190613130565b5b5090506131599190613238565b5090565b60405180610120016040528060008152602001606081526020016000815260200160008152602001600081526020016000815260200160001515815260200160008152602001600081525090565b8280546131b790614087565b90600052602060002090601f0160209004810192826131d95760008555613227565b82601f106131ea5780548555613227565b8280016001018555821561322757600052602060002091601f016020900482015b8281111561322657825482559160010191906001019061320b565b5b5090506132349190613238565b5090565b5b80821115613251576000816000905550600101613239565b5090565b600061326861326384613e08565b613de3565b90508281526020810184848401111561328457613283614252565b5b61328f84828561401b565b509392505050565b6000813590506132a6816143b4565b92915050565b6000813590506132bb816143cb565b92915050565b600082601f8301126132d6576132d561424d565b5b81356132e6848260208601613255565b91505092915050565b6000813590506132fe816143e2565b92915050565b600081359050613313816143f9565b92915050565b60006020828403121561332f5761332e61425c565b5b600061333d84828501613297565b91505092915050565b6000806040838503121561335d5761335c61425c565b5b600061336b85828601613297565b925050602061337c858286016132ef565b9150509250929050565b60006020828403121561339c5761339b61425c565b5b600082013567ffffffffffffffff8111156133ba576133b9614257565b5b6133c6848285016132c1565b91505092915050565b6000806000606084860312156133e8576133e761425c565b5b600084013567ffffffffffffffff81111561340657613405614257565b5b613412868287016132c1565b935050602084013567ffffffffffffffff81111561343357613432614257565b5b61343f868287016132c1565b9250506040613450868287016132ac565b9150509250925092565b6000806000606084860312156134735761347261425c565b5b600084013567ffffffffffffffff81111561349157613490614257565b5b61349d868287016132c1565b935050602084013567ffffffffffffffff8111156134be576134bd614257565b5b6134ca868287016132c1565b925050604084013567ffffffffffffffff8111156134eb576134ea614257565b5b6134f7868287016132c1565b9150509250925092565b6000602082840312156135175761351661425c565b5b6000613525848285016132ef565b91505092915050565b600080604083850312156135455761354461425c565b5b6000613553858286016132ef565b925050602061356485828601613297565b9150509250929050565b60008060008060008060c0878903121561358b5761358a61425c565b5b600061359989828a016132ef565b965050602087013567ffffffffffffffff8111156135ba576135b9614257565b5b6135c689828a016132c1565b955050604087013567ffffffffffffffff8111156135e7576135e6614257565b5b6135f389828a016132c1565b945050606061360489828a016132ef565b935050608061361589828a016132ef565b92505060a061362689828a01613304565b9150509295509295509295565b6000806040838503121561364a5761364961425c565b5b6000613658858286016132ef565b9250506020613669858286016132ef565b9150509250929050565b60008060006060848603121561368c5761368b61425c565b5b600061369a868287016132ef565b93505060206136ab868287016132ef565b925050604084013567ffffffffffffffff8111156136cc576136cb614257565b5b6136d8868287016132c1565b9150509250925092565b60006136ee83836138eb565b905092915050565b6136ff81613fb4565b82525050565b61370e81613fb4565b82525050565b600061371f82613e49565b6137298185613e6c565b93508360208202850161373b85613e39565b8060005b85811015613777578484038952815161375885826136e2565b945061376383613e5f565b925060208a0199505060018101905061373f565b50829750879550505050505092915050565b61379281613fd8565b82525050565b6137a181613fd8565b82525050565b60006137b282613e54565b6137bc8185613e7d565b93506137cc81856020860161402a565b6137d581614261565b840191505092915050565b60006137eb82613e54565b6137f58185613e8e565b935061380581856020860161402a565b61380e81614261565b840191505092915050565b6000613826602783613e8e565b915061383182614272565b604082019050919050565b6000613849601183613e8e565b9150613854826142c1565b602082019050919050565b600061386c600d83613e8e565b9150613877826142ea565b602082019050919050565b600061388f601483613e8e565b915061389a82614313565b602082019050919050565b60006138b2602483613e8e565b91506138bd8261433c565b604082019050919050565b60006138d5601583613e8e565b91506138e08261438b565b602082019050919050565b6000610120830160008301516139046000860182613a47565b506020830151848203602086015261391c82826137a7565b91505060408301516139316040860182613a47565b5060608301516139446060860182613a47565b5060808301516139576080860182613a47565b5060a083015161396a60a0860182613a47565b5060c083015161397d60c0860182613789565b5060e083015161399060e0860182613a47565b506101008301516139a5610100860182613a47565b508091505092915050565b600060c0830160008301516139c860008601826136f6565b50602083015184820360208601526139e082826137a7565b91505060408301516139f56040860182613a47565b506060830151613a086060860182613a47565b5060808301518482036080860152613a2082826137a7565b91505060a083015184820360a0860152613a3a82826137a7565b9150508091505092915050565b613a5081614004565b82525050565b613a5f81614004565b82525050565b613a6e8161400e565b82525050565b600060c082019050613a896000830189613705565b8181036020830152613a9b81886137e0565b9050613aaa6040830187613a56565b613ab76060830186613a56565b8181036080830152613ac981856137e0565b905081810360a0830152613add81846137e0565b9050979650505050505050565b60006020820190508181036000830152613b048184613714565b905092915050565b6000602082019050613b216000830184613798565b92915050565b60006020820190508181036000830152613b4181846137e0565b905092915050565b60006020820190508181036000830152613b6281613819565b9050919050565b60006020820190508181036000830152613b828161383c565b9050919050565b60006020820190508181036000830152613ba28161385f565b9050919050565b60006020820190508181036000830152613bc281613882565b9050919050565b60006020820190508181036000830152613be2816138a5565b9050919050565b60006020820190508181036000830152613c02816138c8565b9050919050565b6000602082019050613c1e6000830184613a56565b92915050565b600060a082019050613c396000830188613a56565b8181036020830152613c4b81876137e0565b90508181036040830152613c5f81866137e0565b9050613c6e6060830185613705565b613c7b6080830184613a56565b9695505050505050565b600061010082019050613c9b600083018b613a56565b8181036020830152613cad818a6137e0565b90508181036040830152613cc181896137e0565b9050613cd06060830188613a56565b613cdd6080830187613a56565b613cea60a0830186613798565b613cf760c0830185613a65565b613d0460e0830184613a56565b9998505050505050505050565b600061012082019050613d27600083018c613a56565b8181036020830152613d39818b6137e0565b9050613d48604083018a613a56565b613d556060830189613a56565b613d626080830188613a56565b613d6f60a0830187613a56565b613d7c60c0830186613798565b613d8960e0830185613a56565b613d97610100830184613a56565b9a9950505050505050505050565b6000606082019050613dba6000830186613a56565b8181036020830152613dcc81856139b0565b9050613ddb6040830184613a56565b949350505050565b6000613ded613dfe565b9050613df982826140b9565b919050565b6000604051905090565b600067ffffffffffffffff821115613e2357613e2261421e565b5b613e2c82614261565b9050602081019050919050565b6000819050602082019050919050565b600081519050919050565b600081519050919050565b6000602082019050919050565b600082825260208201905092915050565b600082825260208201905092915050565b600082825260208201905092915050565b6000613eaa82614004565b9150613eb583614004565b9250827fffffffffffffffffffffffffffffffffffffffffffffffffffffffffffffffff03821115613eea57613ee9614133565b5b828201905092915050565b6000613f0082614004565b9150613f0b83614004565b925082613f1b57613f1a614162565b5b828204905092915050565b6000613f3182614004565b9150613f3c83614004565b9250817fffffffffffffffffffffffffffffffffffffffffffffffffffffffffffffffff0483118215151615613f7557613f74614133565b5b828202905092915050565b6000613f8b82614004565b9150613f9683614004565b925082821015613fa957613fa8614133565b5b828203905092915050565b6000613fbf82613fe4565b9050919050565b6000613fd182613fe4565b9050919050565b60008115159050919050565b600073ffffffffffffffffffffffffffffffffffffffff82169050919050565b6000819050919050565b600060ff82169050919050565b82818337600083830152505050565b60005b8381101561404857808201518184015260208101905061402d565b83811115614057576000848401525b50505050565b600061406882614004565b9150600082141561407c5761407b614133565b5b600182039050919050565b6000600282049050600182168061409f57607f821691505b602082108114156140b3576140b2614191565b5b50919050565b6140c282614261565b810181811067ffffffffffffffff821117156140e1576140e061421e565b5b80604052505050565b60006140f582614004565b91507fffffffffffffffffffffffffffffffffffffffffffffffffffffffffffffffff82141561412857614127614133565b5b600182019050919050565b7f4e487b7100000000000000000000000000000000000000000000000000000000600052601160045260246000fd5b7f4e487b7100000000000000000000000000000000000000000000000000000000600052601260045260246000fd5b7f4e487b7100000000000000000000000000000000000000000000000000000000600052602260045260246000fd5b7f4e487b7100000000000000000000000000000000000000000000000000000000600052603160045260246000fd5b7f4e487b7100000000000000000000000000000000000000000000000000000000600052603260045260246000fd5b7f4e487b7100000000000000000000000000000000000000000000000000000000600052604160045260246000fd5b600080fd5b600080fd5b600080fd5b600080fd5b6000601f19601f8301169050919050565b7f596f75206e656564206d6f7265206361736820746f2070617920666f7220746860008201527f697320706c616e00000000000000000000000000000000000000000000000000602082015250565b7f67726f75704944206e6f7420666f756e64000000000000000000000000000000600082015250565b7f506c616e20697320656d70747900000000000000000000000000000000000000600082015250565b7f47726f757020646f6573206e6f74206578697374000000000000000000000000600082015250565b7f596f7520617265206e6f7420616c6c6f77656420746f2063726561746520612060008201527f706c616e00000000000000000000000000000000000000000000000000000000602082015250565b7f47726f75702069732066756c6c20616c72656164790000000000000000000000600082015250565b6143bd81613fb4565b81146143c857600080fd5b50565b6143d481613fc6565b81146143df57600080fd5b50565b6143eb81614004565b81146143f657600080fd5b50565b6144028161400e565b811461440d57600080fd5b5056fea26469706673582212209f14b7339e91dcfbc2861ede745a62bc0a424a43748a901ed8b7066f50b44f6264736f6c63430008070033",
  "linkReferences": {},
  "deployedLinkReferences": {}
}