{
  "_format": "hh-sol-artifact-1",
  "contractName": "Berry",
  "sourceName": "contracts/Berry.sol",
  "abi": [
    {
      "inputs": [
        {
          "internalType": "uint256",
          "name": "providerID",
          "type": "uint256"
        },
        {
          "internalType": "string",
          "name": "name",
          "type": "string"
        },
        {
          "internalType": "string",
          "name": "description",
          "type": "string"
        },
        {
          "internalType": "uint256",
          "name": "recurrence",
          "type": "uint256"
        },
        {
          "internalType": "uint256",
          "name": "price",
          "type": "uint256"
        },
        {
          "internalType": "uint8",
          "name": "maxMembers",
          "type": "uint8"
        }
      ],
      "name": "addPlan",
      "outputs": [
        {
          "internalType": "uint256",
          "name": "planID",
          "type": "uint256"
        }
      ],
      "stateMutability": "nonpayable",
      "type": "function"
    },
    {
      "inputs": [
        {
          "internalType": "uint256",
          "name": "providerID",
          "type": "uint256"
        },
        {
          "internalType": "uint256",
          "name": "planID",
          "type": "uint256"
        },
        {
          "internalType": "string",
          "name": "groupName",
          "type": "string"
        }
      ],
      "name": "createGroup",
      "outputs": [
        {
          "internalType": "uint256",
          "name": "groupID",
          "type": "uint256"
        }
      ],
      "stateMutability": "payable",
      "type": "function"
    },
    {
      "inputs": [
        {
          "internalType": "string",
          "name": "name",
          "type": "string"
        },
        {
          "internalType": "string",
          "name": "imageURL",
          "type": "string"
        },
        {
          "internalType": "address payable",
          "name": "owner",
          "type": "address"
        }
      ],
      "name": "createProvider",
      "outputs": [
        {
          "internalType": "uint256",
          "name": "providerID",
          "type": "uint256"
        }
      ],
      "stateMutability": "nonpayable",
      "type": "function"
    },
    {
      "inputs": [
        {
          "internalType": "address",
          "name": "userAdress",
          "type": "address"
        }
      ],
      "name": "getAllUserGroups",
      "outputs": [
        {
          "components": [
            {
              "internalType": "uint256",
              "name": "groupID",
              "type": "uint256"
            },
            {
              "internalType": "string",
              "name": "name",
              "type": "string"
            },
            {
              "internalType": "uint256",
              "name": "totalBalance",
              "type": "uint256"
            },
            {
              "internalType": "uint256",
              "name": "planID",
              "type": "uint256"
            },
            {
              "internalType": "uint256",
              "name": "planProviderID",
              "type": "uint256"
            },
            {
              "internalType": "uint256",
              "name": "numMembers",
              "type": "uint256"
            },
            {
              "internalType": "bool",
              "name": "initialized",
              "type": "bool"
            },
            {
              "internalType": "uint256",
              "name": "creationTimestamp",
              "type": "uint256"
            },
            {
              "internalType": "uint256",
              "name": "lastPaymentTimestamp",
              "type": "uint256"
            }
          ],
          "internalType": "struct Berry.Group[]",
          "name": "userGroups",
          "type": "tuple[]"
        }
      ],
      "stateMutability": "view",
      "type": "function"
    },
    {
      "inputs": [],
      "name": "getBio",
      "outputs": [
        {
          "internalType": "string",
          "name": "",
          "type": "string"
        }
      ],
      "stateMutability": "view",
      "type": "function"
    },
    {
      "inputs": [],
      "name": "getName",
      "outputs": [
        {
          "internalType": "string",
          "name": "",
          "type": "string"
        }
      ],
      "stateMutability": "view",
      "type": "function"
    },
    {
      "inputs": [],
      "name": "getUserBerries",
      "outputs": [
        {
          "internalType": "uint256",
          "name": "",
          "type": "uint256"
        }
      ],
      "stateMutability": "view",
      "type": "function"
    },
    {
      "inputs": [
        {
          "internalType": "uint256",
          "name": "",
          "type": "uint256"
        }
      ],
      "name": "groups",
      "outputs": [
        {
          "internalType": "uint256",
          "name": "groupID",
          "type": "uint256"
        },
        {
          "internalType": "string",
          "name": "name",
          "type": "string"
        },
        {
          "internalType": "uint256",
          "name": "totalBalance",
          "type": "uint256"
        },
        {
          "internalType": "uint256",
          "name": "planID",
          "type": "uint256"
        },
        {
          "internalType": "uint256",
          "name": "planProviderID",
          "type": "uint256"
        },
        {
          "internalType": "uint256",
          "name": "numMembers",
          "type": "uint256"
        },
        {
          "internalType": "bool",
          "name": "initialized",
          "type": "bool"
        },
        {
          "internalType": "uint256",
          "name": "creationTimestamp",
          "type": "uint256"
        },
        {
          "internalType": "uint256",
          "name": "lastPaymentTimestamp",
          "type": "uint256"
        }
      ],
      "stateMutability": "view",
      "type": "function"
    },
    {
      "inputs": [
        {
          "internalType": "address",
          "name": "",
          "type": "address"
        },
        {
          "internalType": "uint256",
          "name": "",
          "type": "uint256"
        }
      ],
      "name": "groupsPerUser",
      "outputs": [
        {
          "internalType": "uint256",
          "name": "groupID",
          "type": "uint256"
        },
        {
          "internalType": "string",
          "name": "name",
          "type": "string"
        },
        {
          "internalType": "uint256",
          "name": "totalBalance",
          "type": "uint256"
        },
        {
          "internalType": "uint256",
          "name": "planID",
          "type": "uint256"
        },
        {
          "internalType": "uint256",
          "name": "planProviderID",
          "type": "uint256"
        },
        {
          "internalType": "uint256",
          "name": "numMembers",
          "type": "uint256"
        },
        {
          "internalType": "bool",
          "name": "initialized",
          "type": "bool"
        },
        {
          "internalType": "uint256",
          "name": "creationTimestamp",
          "type": "uint256"
        },
        {
          "internalType": "uint256",
          "name": "lastPaymentTimestamp",
          "type": "uint256"
        }
      ],
      "stateMutability": "view",
      "type": "function"
    },
    {
      "inputs": [
        {
          "internalType": "uint256",
          "name": "groupID",
          "type": "uint256"
        }
      ],
      "name": "joinGroup",
      "outputs": [
        {
          "internalType": "bool",
          "name": "",
          "type": "bool"
        }
      ],
      "stateMutability": "payable",
      "type": "function"
    },
    {
      "inputs": [
        {
          "internalType": "uint256",
          "name": "groupID",
          "type": "uint256"
        }
      ],
      "name": "leaveGroup",
      "outputs": [
        {
          "internalType": "bool",
          "name": "",
          "type": "bool"
        }
      ],
      "stateMutability": "nonpayable",
      "type": "function"
    },
    {
      "inputs": [
        {
          "internalType": "uint256",
          "name": "",
          "type": "uint256"
        },
        {
          "internalType": "uint256",
          "name": "",
          "type": "uint256"
        }
      ],
      "name": "membersPerGroup",
      "outputs": [
        {
          "internalType": "uint256",
          "name": "groupID",
          "type": "uint256"
        },
        {
          "components": [
            {
              "internalType": "address",
              "name": "owner",
              "type": "address"
            },
            {
              "internalType": "string",
              "name": "name",
              "type": "string"
            },
            {
              "internalType": "uint256",
              "name": "berries",
              "type": "uint256"
            },
            {
              "internalType": "uint256",
              "name": "numGroups",
              "type": "uint256"
            },
            {
              "internalType": "string",
              "name": "imageURL",
              "type": "string"
            },
            {
              "internalType": "string",
              "name": "description",
              "type": "string"
            }
          ],
          "internalType": "struct Berry.User",
          "name": "member",
          "type": "tuple"
        },
        {
          "internalType": "uint256",
          "name": "balance",
          "type": "uint256"
        }
      ],
      "stateMutability": "view",
      "type": "function"
    },
    {
      "inputs": [],
      "name": "numGroups",
      "outputs": [
        {
          "internalType": "uint256",
          "name": "",
          "type": "uint256"
        }
      ],
      "stateMutability": "view",
      "type": "function"
    },
    {
      "inputs": [],
      "name": "numProviders",
      "outputs": [
        {
          "internalType": "uint256",
          "name": "",
          "type": "uint256"
        }
      ],
      "stateMutability": "view",
      "type": "function"
    },
    {
      "inputs": [],
      "name": "numUsers",
      "outputs": [
        {
          "internalType": "uint256",
          "name": "",
          "type": "uint256"
        }
      ],
      "stateMutability": "view",
      "type": "function"
    },
    {
      "inputs": [
        {
          "internalType": "uint256",
          "name": "groupID",
          "type": "uint256"
        }
      ],
      "name": "payRecurrent",
      "outputs": [],
      "stateMutability": "payable",
      "type": "function"
    },
    {
      "inputs": [
        {
          "internalType": "uint256",
          "name": "",
          "type": "uint256"
        },
        {
          "internalType": "uint256",
          "name": "",
          "type": "uint256"
        }
      ],
      "name": "plansPerProvider",
      "outputs": [
        {
          "internalType": "uint256",
          "name": "planID",
          "type": "uint256"
        },
        {
          "internalType": "uint256",
          "name": "providerID",
          "type": "uint256"
        },
        {
          "internalType": "string",
          "name": "name",
          "type": "string"
        },
        {
          "internalType": "string",
          "name": "description",
          "type": "string"
        },
        {
          "internalType": "uint256",
          "name": "recurrence",
          "type": "uint256"
        },
        {
          "internalType": "uint256",
          "name": "price",
          "type": "uint256"
        },
        {
          "internalType": "bool",
          "name": "active",
          "type": "bool"
        },
        {
          "internalType": "uint8",
          "name": "maxMembers",
          "type": "uint8"
        },
        {
          "internalType": "uint256",
          "name": "pricePerMember",
          "type": "uint256"
        }
      ],
      "stateMutability": "view",
      "type": "function"
    },
    {
      "inputs": [
        {
          "internalType": "uint256",
          "name": "",
          "type": "uint256"
        }
      ],
      "name": "providers",
      "outputs": [
        {
          "internalType": "uint256",
          "name": "providerID",
          "type": "uint256"
        },
        {
          "internalType": "string",
          "name": "name",
          "type": "string"
        },
        {
          "internalType": "string",
          "name": "imageURL",
          "type": "string"
        },
        {
          "internalType": "address",
          "name": "serviceOwner",
          "type": "address"
        },
        {
          "internalType": "uint256",
          "name": "numPlans",
          "type": "uint256"
        }
      ],
      "stateMutability": "view",
      "type": "function"
    },
    {
      "inputs": [
        {
          "internalType": "string",
          "name": "name",
          "type": "string"
        },
        {
          "internalType": "string",
          "name": "imageURL",
          "type": "string"
        },
        {
          "internalType": "string",
          "name": "description",
          "type": "string"
        }
      ],
      "name": "register",
      "outputs": [],
      "stateMutability": "nonpayable",
      "type": "function"
    },
    {
      "inputs": [
        {
          "internalType": "string",
          "name": "bio",
          "type": "string"
        }
      ],
      "name": "setBio",
      "outputs": [],
      "stateMutability": "nonpayable",
      "type": "function"
    },
    {
      "inputs": [
        {
          "internalType": "string",
          "name": "name",
          "type": "string"
        }
      ],
      "name": "setName",
      "outputs": [],
      "stateMutability": "nonpayable",
      "type": "function"
    },
    {
      "inputs": [
        {
          "internalType": "uint256",
          "name": "",
          "type": "uint256"
        },
        {
          "internalType": "address",
          "name": "",
          "type": "address"
        }
      ],
      "name": "userGroupMembership",
      "outputs": [
        {
          "internalType": "uint256",
          "name": "groupID",
          "type": "uint256"
        },
        {
          "components": [
            {
              "internalType": "address",
              "name": "owner",
              "type": "address"
            },
            {
              "internalType": "string",
              "name": "name",
              "type": "string"
            },
            {
              "internalType": "uint256",
              "name": "berries",
              "type": "uint256"
            },
            {
              "internalType": "uint256",
              "name": "numGroups",
              "type": "uint256"
            },
            {
              "internalType": "string",
              "name": "imageURL",
              "type": "string"
            },
            {
              "internalType": "string",
              "name": "description",
              "type": "string"
            }
          ],
          "internalType": "struct Berry.User",
          "name": "member",
          "type": "tuple"
        },
        {
          "internalType": "uint256",
          "name": "balance",
          "type": "uint256"
        }
      ],
      "stateMutability": "view",
      "type": "function"
    },
    {
      "inputs": [
        {
          "internalType": "address",
          "name": "",
          "type": "address"
        }
      ],
      "name": "users",
      "outputs": [
        {
          "internalType": "address",
          "name": "owner",
          "type": "address"
        },
        {
          "internalType": "string",
          "name": "name",
          "type": "string"
        },
        {
          "internalType": "uint256",
          "name": "berries",
          "type": "uint256"
        },
        {
          "internalType": "uint256",
          "name": "numGroups",
          "type": "uint256"
        },
        {
          "internalType": "string",
          "name": "imageURL",
          "type": "string"
        },
        {
          "internalType": "string",
          "name": "description",
          "type": "string"
        }
      ],
      "stateMutability": "view",
      "type": "function"
    }
  ],
  "bytecode": "0x608060405234801561001057600080fd5b50614465806100206000396000f3fe6080604052600436106101405760003560e01c80635571d7fe116100b6578063ed03b3001161006f578063ed03b300146104e6578063eed02e4b14610511578063f7898dae14610541578063fa165e8f14610571578063fb7e06d81461059c578063ff18666b146105c557610140565b80635571d7fe1461038f5780637558f32d146103ce57806383324e8c1461040b57806396324bd414610436578063a87430ba1461047b578063c47f0027146104bd57610140565b806328bbb31b1161010857806328bbb31b1461022757806333471df51461026657806335932a2c146102a35780633fa303c9146102e05780634cd08d031461032557806350f3fc811461034e57610140565b80631666f0e11461014557806317d7de7c1461018a57806319a50f49146101b55780631a3f73a0146101e057806322f50b141461020b575b600080fd5b34801561015157600080fd5b5061016c60048036038101906101679190613643565b610602565b60405161018199989796959493929190613d67565b60405180910390f35b34801561019657600080fd5b5061019f610787565b6040516101ac9190613b37565b60405180910390f35b3480156101c157600080fd5b506101ca61085f565b6040516101d79190613c19565b60405180910390f35b3480156101ec57600080fd5b506101f5610865565b6040516102029190613c19565b60405180910390f35b61022560048036038101906102209190613511565b6108b4565b005b34801561023357600080fd5b5061024e6004803603810190610249919061353e565b610b78565b60405161025d93929190613d29565b60405180910390f35b34801561027257600080fd5b5061028d60048036038101906102889190613511565b610dd9565b60405161029a9190613b1c565b60405180910390f35b3480156102af57600080fd5b506102ca60048036038101906102c5919061357e565b610f9f565b6040516102d79190613c19565b60405180910390f35b3480156102ec57600080fd5b5061030760048036038101906103029190613356565b611145565b60405161031c99989796959493929190613c95565b60405180910390f35b34801561033157600080fd5b5061034c6004803603810190610347919061346a565b611235565b005b34801561035a57600080fd5b5061037560048036038101906103709190613511565b6112e1565b604051610386959493929190613c34565b60405180910390f35b34801561039b57600080fd5b506103b660048036038101906103b19190613643565b611447565b6040516103c593929190613d29565b60405180910390f35b3480156103da57600080fd5b506103f560048036038101906103f09190613329565b6116a8565b6040516104029190613afa565b60405180910390f35b34801561041757600080fd5b50610420611900565b60405161042d9190613c19565b60405180910390f35b34801561044257600080fd5b5061045d60048036038101906104589190613511565b611906565b60405161047299989796959493929190613c95565b60405180910390f35b34801561048757600080fd5b506104a2600480360381019061049d9190613329565b6119e9565b6040516104b496959493929190613a84565b60405180910390f35b3480156104c957600080fd5b506104e460048036038101906104df9190613396565b611bdd565b005b3480156104f257600080fd5b506104fb611c3d565b6040516105089190613c19565b60405180910390f35b61052b60048036038101906105269190613511565b611c43565b6040516105389190613b1c565b60405180910390f35b61055b60048036038101906105569190613683565b6124b1565b6040516105689190613c19565b60405180910390f35b34801561057d57600080fd5b50610586612c64565b6040516105939190613b37565b60405180910390f35b3480156105a857600080fd5b506105c360048036038101906105be9190613396565b612d3c565b005b3480156105d157600080fd5b506105ec60048036038101906105e791906133df565b612d9c565b6040516105f99190613c19565b60405180910390f35b600a6020528160005260406000206020528060005260406000206000915091505080600001549080600101549080600201805461063e906140a6565b80601f016020809104026020016040519081016040528092919081815260200182805461066a906140a6565b80156106b75780601f1061068c576101008083540402835291602001916106b7565b820191906000526020600020905b81548152906001019060200180831161069a57829003601f168201915b5050505050908060030180546106cc906140a6565b80601f01602080910402602001604051908101604052809291908181526020018280546106f8906140a6565b80156107455780601f1061071a57610100808354040283529160200191610745565b820191906000526020600020905b81548152906001019060200180831161072857829003601f168201915b5050505050908060040154908060050154908060060160009054906101000a900460ff16908060060160019054906101000a900460ff16908060070154905089565b60606000600560003373ffffffffffffffffffffffffffffffffffffffff1673ffffffffffffffffffffffffffffffffffffffff16815260200190815260200160002090508060010180546107db906140a6565b80601f0160208091040260200160405190810160405280929190818152602001828054610807906140a6565b80156108545780601f1061082957610100808354040283529160200191610854565b820191906000526020600020905b81548152906001019060200180831161083757829003601f168201915b505050505091505090565b60025481565b600080600560003373ffffffffffffffffffffffffffffffffffffffff1673ffffffffffffffffffffffffffffffffffffffff1681526020019081526020016000209050806002015491505090565b60006004600083815260200190815260200160002090506000600a60008360040154815260200190815260200160002060008360030154815260200190815260200160002090508160060160009054906101000a900460ff1661094c576040517f08c379a000000000000000000000000000000000000000000000000000000000815260040161094390613bb9565b60405180910390fd5b8060070154341015610993576040517f08c379a000000000000000000000000000000000000000000000000000000000815260040161098a90613b59565b60405180910390fd5b60006006600085815260200190815260200160002060003373ffffffffffffffffffffffffffffffffffffffff1673ffffffffffffffffffffffffffffffffffffffff168152602001908152602001600020905060008260070154346109f99190613f9f565b90506000811115610a6f578260070154826007016000828254610a1c9190613ebe565b925050819055503373ffffffffffffffffffffffffffffffffffffffff166108fc829081150290604051600060405180830381858888f19350505050158015610a69573d6000803e3d6000fd5b50610a79565b3482600701819055505b8260070154846002016000828254610a919190613ebe565b925050819055508260060160019054906101000a900460ff1660ff1684600501541415610b715742610acb85600801548560040154612e53565b1015610b70576000600360008560010154815260200190815260200160002090508060030160009054906101000a900473ffffffffffffffffffffffffffffffffffffffff1673ffffffffffffffffffffffffffffffffffffffff166108fc86600201549081150290604051600060405180830381858888f19350505050158015610b5a573d6000803e3d6000fd5b5060008560020181905550428560080181905550505b5b5050505050565b600660205281600052604060002060205280600052604060002060009150915050806000015490806001016040518060c00160405290816000820160009054906101000a900473ffffffffffffffffffffffffffffffffffffffff1673ffffffffffffffffffffffffffffffffffffffff1673ffffffffffffffffffffffffffffffffffffffff168152602001600182018054610c14906140a6565b80601f0160208091040260200160405190810160405280929190818152602001828054610c40906140a6565b8015610c8d5780601f10610c6257610100808354040283529160200191610c8d565b820191906000526020600020905b815481529060010190602001808311610c7057829003601f168201915b505050505081526020016002820154815260200160038201548152602001600482018054610cba906140a6565b80601f0160208091040260200160405190810160405280929190818152602001828054610ce6906140a6565b8015610d335780601f10610d0857610100808354040283529160200191610d33565b820191906000526020600020905b815481529060010190602001808311610d1657829003601f168201915b50505050508152602001600582018054610d4c906140a6565b80601f0160208091040260200160405190810160405280929190818152602001828054610d78906140a6565b8015610dc55780601f10610d9a57610100808354040283529160200191610dc5565b820191906000526020600020905b815481529060010190602001808311610da857829003601f168201915b505050505081525050908060070154905083565b6000806004600084815260200190815260200160002090508060060160009054906101000a900460ff16610e42576040517f08c379a0000000000000000000000000000000000000000000000000000000008152600401610e3990613bb9565b60405180910390fd5b6006600084815260200190815260200160002060003373ffffffffffffffffffffffffffffffffffffffff1673ffffffffffffffffffffffffffffffffffffffff16815260200190815260200160002060008082016000905560018201600080820160006101000a81549073ffffffffffffffffffffffffffffffffffffffff0219169055600182016000610ed791906130a7565b60028201600090556003820160009055600482016000610ef791906130a7565b600582016000610f0791906130a7565b505060078201600090555050806005016000815480929190610f289061407c565b91905055506000600560003373ffffffffffffffffffffffffffffffffffffffff1673ffffffffffffffffffffffffffffffffffffffff1681526020019081526020016000209050806003016000815480929190610f859061407c565b9190505550610f943385612e84565b600192505050919050565b6000806003600089815260200190815260200160002090508060030160009054906101000a900473ffffffffffffffffffffffffffffffffffffffff1673ffffffffffffffffffffffffffffffffffffffff163373ffffffffffffffffffffffffffffffffffffffff1614611049576040517f08c379a000000000000000000000000000000000000000000000000000000000815260040161104090613bd9565b60405180910390fd5b806004015491506000600a60008a815260200190815260200160002060008481526020019081526020016000209050828160000181905550888160010181905550878160020190805190602001906110a29291906130e7565b50868160030190805190602001906110bb9291906130e7565b5085816004018190555084816005018190555060018160060160006101000a81548160ff021916908315150217905550838160060160016101000a81548160ff021916908360ff1602179055508360ff16856111179190613f14565b816007018190555081600401600081548092919061113490614109565b919050555050509695505050505050565b60076020528160005260406000206020528060005260406000206000915091505080600001549080600101805461117b906140a6565b80601f01602080910402602001604051908101604052809291908181526020018280546111a7906140a6565b80156111f45780601f106111c9576101008083540402835291602001916111f4565b820191906000526020600020905b8154815290600101906020018083116111d757829003601f168201915b5050505050908060020154908060030154908060040154908060050154908060060160009054906101000a900460ff16908060070154908060080154905089565b6000600560003373ffffffffffffffffffffffffffffffffffffffff1673ffffffffffffffffffffffffffffffffffffffff1681526020019081526020016000209050838160010190805190602001906112909291906130e7565b50828160040190805190602001906112a99291906130e7565b50818160050190805190602001906112c29291906130e7565b50600260008154809291906112d690614109565b919050555050505050565b600360205280600052604060002060009150905080600001549080600101805461130a906140a6565b80601f0160208091040260200160405190810160405280929190818152602001828054611336906140a6565b80156113835780601f1061135857610100808354040283529160200191611383565b820191906000526020600020905b81548152906001019060200180831161136657829003601f168201915b505050505090806002018054611398906140a6565b80601f01602080910402602001604051908101604052809291908181526020018280546113c4906140a6565b80156114115780601f106113e657610100808354040283529160200191611411565b820191906000526020600020905b8154815290600101906020018083116113f457829003601f168201915b5050505050908060030160009054906101000a900473ffffffffffffffffffffffffffffffffffffffff16908060040154905085565b600960205281600052604060002060205280600052604060002060009150915050806000015490806001016040518060c00160405290816000820160009054906101000a900473ffffffffffffffffffffffffffffffffffffffff1673ffffffffffffffffffffffffffffffffffffffff1673ffffffffffffffffffffffffffffffffffffffff1681526020016001820180546114e3906140a6565b80601f016020809104026020016040519081016040528092919081815260200182805461150f906140a6565b801561155c5780601f106115315761010080835404028352916020019161155c565b820191906000526020600020905b81548152906001019060200180831161153f57829003601f168201915b505050505081526020016002820154815260200160038201548152602001600482018054611589906140a6565b80601f01602080910402602001604051908101604052809291908181526020018280546115b5906140a6565b80156116025780601f106115d757610100808354040283529160200191611602565b820191906000526020600020905b8154815290600101906020018083116115e557829003601f168201915b5050505050815260200160058201805461161b906140a6565b80601f0160208091040260200160405190810160405280929190818152602001828054611647906140a6565b80156116945780601f1061166957610100808354040283529160200191611694565b820191906000526020600020905b81548152906001019060200180831161167757829003601f168201915b505050505081525050908060070154905083565b60606000600860008473ffffffffffffffffffffffffffffffffffffffff1673ffffffffffffffffffffffffffffffffffffffff1681526020019081526020016000209050808054905067ffffffffffffffff81111561170b5761170a61423d565b5b60405190808252806020026020018201604052801561174457816020015b61173161316d565b8152602001906001900390816117295790505b50915060005b81805490508110156118f957600082828154811061176b5761176a61420e565b5b90600052602060002001549050600760008673ffffffffffffffffffffffffffffffffffffffff1673ffffffffffffffffffffffffffffffffffffffff168152602001908152602001600020600082815260200190815260200160002060405180610120016040529081600082015481526020016001820180546117ee906140a6565b80601f016020809104026020016040519081016040528092919081815260200182805461181a906140a6565b80156118675780601f1061183c57610100808354040283529160200191611867565b820191906000526020600020905b81548152906001019060200180831161184a57829003601f168201915b50505050508152602001600282015481526020016003820154815260200160048201548152602001600582015481526020016006820160009054906101000a900460ff16151515158152602001600782015481526020016008820154815250508483815181106118da576118d961420e565b5b60200260200101819052505080806118f190614109565b91505061174a565b5050919050565b60015481565b600460205280600052604060002060009150905080600001549080600101805461192f906140a6565b80601f016020809104026020016040519081016040528092919081815260200182805461195b906140a6565b80156119a85780601f1061197d576101008083540402835291602001916119a8565b820191906000526020600020905b81548152906001019060200180831161198b57829003601f168201915b5050505050908060020154908060030154908060040154908060050154908060060160009054906101000a900460ff16908060070154908060080154905089565b60056020528060005260406000206000915090508060000160009054906101000a900473ffffffffffffffffffffffffffffffffffffffff1690806001018054611a32906140a6565b80601f0160208091040260200160405190810160405280929190818152602001828054611a5e906140a6565b8015611aab5780601f10611a8057610100808354040283529160200191611aab565b820191906000526020600020905b815481529060010190602001808311611a8e57829003601f168201915b505050505090806002015490806003015490806004018054611acc906140a6565b80601f0160208091040260200160405190810160405280929190818152602001828054611af8906140a6565b8015611b455780601f10611b1a57610100808354040283529160200191611b45565b820191906000526020600020905b815481529060010190602001808311611b2857829003601f168201915b505050505090806005018054611b5a906140a6565b80601f0160208091040260200160405190810160405280929190818152602001828054611b86906140a6565b8015611bd35780601f10611ba857610100808354040283529160200191611bd3565b820191906000526020600020905b815481529060010190602001808311611bb657829003601f168201915b5050505050905086565b6000600560003373ffffffffffffffffffffffffffffffffffffffff1673ffffffffffffffffffffffffffffffffffffffff168152602001908152602001600020905081816001019080519060200190611c389291906130e7565b505050565b60005481565b6000806004600084815260200190815260200160002090506000600a60008360040154815260200190815260200160002060008360030154815260200190815260200160002090508160060160009054906101000a900460ff16611cdc576040517f08c379a0000000000000000000000000000000000000000000000000000000008152600401611cd390613bb9565b60405180910390fd5b8060060160019054906101000a900460ff1660ff16826005015410611d36576040517f08c379a0000000000000000000000000000000000000000000000000000000008152600401611d2d90613bf9565b60405180910390fd5b8060070154341015611d7d576040517f08c379a0000000000000000000000000000000000000000000000000000000008152600401611d7490613b59565b60405180910390fd5b60008260050154905060006009600087815260200190815260200160002060008381526020019081526020016000209050600560003373ffffffffffffffffffffffffffffffffffffffff1673ffffffffffffffffffffffffffffffffffffffff168152602001908152602001600020816001016000820160009054906101000a900473ffffffffffffffffffffffffffffffffffffffff168160000160006101000a81548173ffffffffffffffffffffffffffffffffffffffff021916908373ffffffffffffffffffffffffffffffffffffffff1602179055506001820181600101908054611e6c906140a6565b611e779291906131bb565b5060028201548160020155600382015481600301556004820181600401908054611ea0906140a6565b611eab9291906131bb565b506005820181600501908054611ec0906140a6565b611ecb9291906131bb565b50905050858160000181905550611ee0613045565b6000600560003373ffffffffffffffffffffffffffffffffffffffff1673ffffffffffffffffffffffffffffffffffffffff1681526020019081526020016000209050806003016000815480929190611f3890614109565b91905055506000846007015434611f4f9190613f9f565b90506000811115611fc5578460070154836007016000828254611f729190613ebe565b925050819055503373ffffffffffffffffffffffffffffffffffffffff166108fc829081150290604051600060405180830381858888f19350505050158015611fbf573d6000803e3d6000fd5b50611fcf565b3483600701819055505b8260070154866002016000828254611fe79190613ebe565b9250508190555082600960008a815260200190815260200160002060008681526020019081526020016000206000820154816000015560018201816001016000820160009054906101000a900473ffffffffffffffffffffffffffffffffffffffff168160000160006101000a81548173ffffffffffffffffffffffffffffffffffffffff021916908373ffffffffffffffffffffffffffffffffffffffff16021790555060018201816001019080546120a0906140a6565b6120ab9291906131bb565b50600282015481600201556003820154816003015560048201816004019080546120d4906140a6565b6120df9291906131bb565b5060058201816005019080546120f4906140a6565b6120ff9291906131bb565b5050506007820154816007015590505082600660008a815260200190815260200160002060003373ffffffffffffffffffffffffffffffffffffffff1673ffffffffffffffffffffffffffffffffffffffff1681526020019081526020016000206000820154816000015560018201816001016000820160009054906101000a900473ffffffffffffffffffffffffffffffffffffffff168160000160006101000a81548173ffffffffffffffffffffffffffffffffffffffff021916908373ffffffffffffffffffffffffffffffffffffffff16021790555060018201816001019080546121ed906140a6565b6121f89291906131bb565b5060028201548160020155600382015481600301556004820181600401908054612221906140a6565b61222c9291906131bb565b506005820181600501908054612241906140a6565b61224c9291906131bb565b5050506007820154816007015590505085600501600081548092919061227190614109565b91905055508460060160019054906101000a900460ff1660ff168660050154141561234f57426122a987600801548760040154612e53565b101561234e576000600360008760010154815260200190815260200160002090508060030160009054906101000a900473ffffffffffffffffffffffffffffffffffffffff1673ffffffffffffffffffffffffffffffffffffffff166108fc88600201549081150290604051600060405180830381858888f19350505050158015612338573d6000803e3d6000fd5b5060008760020181905550428760080181905550505b5b85600760003373ffffffffffffffffffffffffffffffffffffffff1673ffffffffffffffffffffffffffffffffffffffff16815260200190815260200160002060008a81526020019081526020016000206000820154816000015560018201816001019080546123be906140a6565b6123c99291906131bb565b50600282015481600201556003820154816003015560048201548160040155600582015481600501556006820160009054906101000a900460ff168160060160006101000a81548160ff02191690831515021790555060078201548160070155600882015481600801559050506000600860003373ffffffffffffffffffffffffffffffffffffffff1673ffffffffffffffffffffffffffffffffffffffff1681526020019081526020016000209050808990806001815401808255809150506001900390600052602060002001600090919091909150556001975050505050505050919050565b600080600a60008681526020019081526020016000206000858152602001908152602001600020905060008160060160019054906101000a900460ff1660ff1611612531576040517f08c379a000000000000000000000000000000000000000000000000000000000815260040161252890613b99565b60405180910390fd5b8060070154341015612578576040517f08c379a000000000000000000000000000000000000000000000000000000000815260040161256f90613b59565b60405180910390fd5b6001600081548092919061258b90614109565b9190505591506000600460008481526020019081526020016000209050828160000181905550848160030181905550858160040181905550838160010190805190602001906125db9291906130e7565b5042816007018190555042816008018190555060008160050154905060006009600086815260200190815260200160002060008381526020019081526020016000209050600560003373ffffffffffffffffffffffffffffffffffffffff1673ffffffffffffffffffffffffffffffffffffffff168152602001908152602001600020816001016000820160009054906101000a900473ffffffffffffffffffffffffffffffffffffffff168160000160006101000a81548173ffffffffffffffffffffffffffffffffffffffff021916908373ffffffffffffffffffffffffffffffffffffffff16021790555060018201816001019080546126dd906140a6565b6126e89291906131bb565b5060028201548160020155600382015481600301556004820181600401908054612711906140a6565b61271c9291906131bb565b506005820181600501908054612731906140a6565b61273c9291906131bb565b509050508481600001819055506000600560003373ffffffffffffffffffffffffffffffffffffffff1673ffffffffffffffffffffffffffffffffffffffff16815260200190815260200160002090508060030160008154809291906127a190614109565b91905055506127ae613045565b60008560070154346127c09190613f9f565b905060008111156128365785600701548360070160008282546127e39190613ebe565b925050819055503373ffffffffffffffffffffffffffffffffffffffff166108fc829081150290604051600060405180830381858888f19350505050158015612830573d6000803e3d6000fd5b50612840565b3483600701819055505b826009600089815260200190815260200160002060008681526020019081526020016000206000820154816000015560018201816001016000820160009054906101000a900473ffffffffffffffffffffffffffffffffffffffff168160000160006101000a81548173ffffffffffffffffffffffffffffffffffffffff021916908373ffffffffffffffffffffffffffffffffffffffff16021790555060018201816001019080546128f2906140a6565b6128fd9291906131bb565b5060028201548160020155600382015481600301556004820181600401908054612926906140a6565b6129319291906131bb565b506005820181600501908054612946906140a6565b6129519291906131bb565b50505060078201548160070155905050826006600089815260200190815260200160002060003373ffffffffffffffffffffffffffffffffffffffff1673ffffffffffffffffffffffffffffffffffffffff1681526020019081526020016000206000820154816000015560018201816001016000820160009054906101000a900473ffffffffffffffffffffffffffffffffffffffff168160000160006101000a81548173ffffffffffffffffffffffffffffffffffffffff021916908373ffffffffffffffffffffffffffffffffffffffff1602179055506001820181600101908054612a3f906140a6565b612a4a9291906131bb565b5060028201548160020155600382015481600301556004820181600401908054612a73906140a6565b612a7e9291906131bb565b506005820181600501908054612a93906140a6565b612a9e9291906131bb565b50505060078201548160070155905050846005016000815480929190612ac390614109565b91905055508260070154856002016000828254612ae09190613ebe565b9250508190555060018560060160006101000a81548160ff02191690831515021790555084600760003373ffffffffffffffffffffffffffffffffffffffff1673ffffffffffffffffffffffffffffffffffffffff1681526020019081526020016000206000898152602001908152602001600020600082015481600001556001820181600101908054612b73906140a6565b612b7e9291906131bb565b50600282015481600201556003820154816003015560048201548160040155600582015481600501556006820160009054906101000a900460ff168160060160006101000a81548160ff02191690831515021790555060078201548160070155600882015481600801559050506000600860003373ffffffffffffffffffffffffffffffffffffffff1673ffffffffffffffffffffffffffffffffffffffff168152602001908152602001600020905080889080600181540180825580915050600190039060005260206000200160009091909190915055505050505050509392505050565b60606000600560003373ffffffffffffffffffffffffffffffffffffffff1673ffffffffffffffffffffffffffffffffffffffff1681526020019081526020016000209050806005018054612cb8906140a6565b80601f0160208091040260200160405190810160405280929190818152602001828054612ce4906140a6565b8015612d315780601f10612d0657610100808354040283529160200191612d31565b820191906000526020600020905b815481529060010190602001808311612d1457829003601f168201915b505050505091505090565b6000600560003373ffffffffffffffffffffffffffffffffffffffff1673ffffffffffffffffffffffffffffffffffffffff168152602001908152602001600020905081816005019080519060200190612d979291906130e7565b505050565b6000806000815480929190612db090614109565b919050559050600060036000838152602001908152602001600020905081816000018190555084816001019080519060200190612dee9291906130e7565b5083816002019080519060200190612e079291906130e7565b50828160030160006101000a81548173ffffffffffffffffffffffffffffffffffffffff021916908373ffffffffffffffffffffffffffffffffffffffff160217905550509392505050565b60006201518082612e649190613f45565b83612e6f9190613ebe565b905082811015612e7e57600080fd5b92915050565b6000600860008473ffffffffffffffffffffffffffffffffffffffff1673ffffffffffffffffffffffffffffffffffffffff168152602001908152602001600020905060007fffffffffffffffffffffffffffffffffffffffffffffffffffffffffffffffff905060005b8280549050811015612f375783838281548110612f0f57612f0e61420e565b5b90600052602060002001541415612f24578091505b8080612f2f90614109565b915050612eef565b507fffffffffffffffffffffffffffffffffffffffffffffffffffffffffffffffff811415612f9b576040517f08c379a0000000000000000000000000000000000000000000000000000000008152600401612f9290613b79565b60405180910390fd5b60008190505b60018380549050612fb29190613f9f565b8110156130175782600182612fc79190613ebe565b81548110612fd857612fd761420e565b5b9060005260206000200154838281548110612ff657612ff561420e565b5b9060005260206000200181905550808061300f90614109565b915050612fa1565b5081805480613029576130286141df565b5b6001900381819060005260206000200160009055905550505050565b6000600560003373ffffffffffffffffffffffffffffffffffffffff1673ffffffffffffffffffffffffffffffffffffffff1681526020019081526020016000209050600581600201600082825461309d9190613ebe565b9250508190555050565b5080546130b3906140a6565b6000825580601f106130c557506130e4565b601f0160209004906000526020600020908101906130e39190613248565b5b50565b8280546130f3906140a6565b90600052602060002090601f016020900481019282613115576000855561315c565b82601f1061312e57805160ff191683800117855561315c565b8280016001018555821561315c579182015b8281111561315b578251825591602001919060010190613140565b5b5090506131699190613248565b5090565b60405180610120016040528060008152602001606081526020016000815260200160008152602001600081526020016000815260200160001515815260200160008152602001600081525090565b8280546131c7906140a6565b90600052602060002090601f0160209004810192826131e95760008555613237565b82601f106131fa5780548555613237565b8280016001018555821561323757600052602060002091601f016020900482015b8281111561323657825482559160010191906001019061321b565b5b5090506132449190613248565b5090565b5b80821115613261576000816000905550600101613249565b5090565b600061327861327384613e27565b613e02565b90508281526020810184848401111561329457613293614271565b5b61329f84828561403a565b509392505050565b6000813590506132b6816143d3565b92915050565b6000813590506132cb816143ea565b92915050565b600082601f8301126132e6576132e561426c565b5b81356132f6848260208601613265565b91505092915050565b60008135905061330e81614401565b92915050565b60008135905061332381614418565b92915050565b60006020828403121561333f5761333e61427b565b5b600061334d848285016132a7565b91505092915050565b6000806040838503121561336d5761336c61427b565b5b600061337b858286016132a7565b925050602061338c858286016132ff565b9150509250929050565b6000602082840312156133ac576133ab61427b565b5b600082013567ffffffffffffffff8111156133ca576133c9614276565b5b6133d6848285016132d1565b91505092915050565b6000806000606084860312156133f8576133f761427b565b5b600084013567ffffffffffffffff81111561341657613415614276565b5b613422868287016132d1565b935050602084013567ffffffffffffffff81111561344357613442614276565b5b61344f868287016132d1565b9250506040613460868287016132bc565b9150509250925092565b6000806000606084860312156134835761348261427b565b5b600084013567ffffffffffffffff8111156134a1576134a0614276565b5b6134ad868287016132d1565b935050602084013567ffffffffffffffff8111156134ce576134cd614276565b5b6134da868287016132d1565b925050604084013567ffffffffffffffff8111156134fb576134fa614276565b5b613507868287016132d1565b9150509250925092565b6000602082840312156135275761352661427b565b5b6000613535848285016132ff565b91505092915050565b600080604083850312156135555761355461427b565b5b6000613563858286016132ff565b9250506020613574858286016132a7565b9150509250929050565b60008060008060008060c0878903121561359b5761359a61427b565b5b60006135a989828a016132ff565b965050602087013567ffffffffffffffff8111156135ca576135c9614276565b5b6135d689828a016132d1565b955050604087013567ffffffffffffffff8111156135f7576135f6614276565b5b61360389828a016132d1565b945050606061361489828a016132ff565b935050608061362589828a016132ff565b92505060a061363689828a01613314565b9150509295509295509295565b6000806040838503121561365a5761365961427b565b5b6000613668858286016132ff565b9250506020613679858286016132ff565b9150509250929050565b60008060006060848603121561369c5761369b61427b565b5b60006136aa868287016132ff565b93505060206136bb868287016132ff565b925050604084013567ffffffffffffffff8111156136dc576136db614276565b5b6136e8868287016132d1565b9150509250925092565b60006136fe83836138fb565b905092915050565b61370f81613fd3565b82525050565b61371e81613fd3565b82525050565b600061372f82613e68565b6137398185613e8b565b93508360208202850161374b85613e58565b8060005b85811015613787578484038952815161376885826136f2565b945061377383613e7e565b925060208a0199505060018101905061374f565b50829750879550505050505092915050565b6137a281613ff7565b82525050565b6137b181613ff7565b82525050565b60006137c282613e73565b6137cc8185613e9c565b93506137dc818560208601614049565b6137e581614280565b840191505092915050565b60006137fb82613e73565b6138058185613ead565b9350613815818560208601614049565b61381e81614280565b840191505092915050565b6000613836602783613ead565b915061384182614291565b604082019050919050565b6000613859601183613ead565b9150613864826142e0565b602082019050919050565b600061387c600d83613ead565b915061388782614309565b602082019050919050565b600061389f601483613ead565b91506138aa82614332565b602082019050919050565b60006138c2602483613ead565b91506138cd8261435b565b604082019050919050565b60006138e5601583613ead565b91506138f0826143aa565b602082019050919050565b6000610120830160008301516139146000860182613a57565b506020830151848203602086015261392c82826137b7565b91505060408301516139416040860182613a57565b5060608301516139546060860182613a57565b5060808301516139676080860182613a57565b5060a083015161397a60a0860182613a57565b5060c083015161398d60c0860182613799565b5060e08301516139a060e0860182613a57565b506101008301516139b5610100860182613a57565b508091505092915050565b600060c0830160008301516139d86000860182613706565b50602083015184820360208601526139f082826137b7565b9150506040830151613a056040860182613a57565b506060830151613a186060860182613a57565b5060808301518482036080860152613a3082826137b7565b91505060a083015184820360a0860152613a4a82826137b7565b9150508091505092915050565b613a6081614023565b82525050565b613a6f81614023565b82525050565b613a7e8161402d565b82525050565b600060c082019050613a996000830189613715565b8181036020830152613aab81886137f0565b9050613aba6040830187613a66565b613ac76060830186613a66565b8181036080830152613ad981856137f0565b905081810360a0830152613aed81846137f0565b9050979650505050505050565b60006020820190508181036000830152613b148184613724565b905092915050565b6000602082019050613b3160008301846137a8565b92915050565b60006020820190508181036000830152613b5181846137f0565b905092915050565b60006020820190508181036000830152613b7281613829565b9050919050565b60006020820190508181036000830152613b928161384c565b9050919050565b60006020820190508181036000830152613bb28161386f565b9050919050565b60006020820190508181036000830152613bd281613892565b9050919050565b60006020820190508181036000830152613bf2816138b5565b9050919050565b60006020820190508181036000830152613c12816138d8565b9050919050565b6000602082019050613c2e6000830184613a66565b92915050565b600060a082019050613c496000830188613a66565b8181036020830152613c5b81876137f0565b90508181036040830152613c6f81866137f0565b9050613c7e6060830185613715565b613c8b6080830184613a66565b9695505050505050565b600061012082019050613cab600083018c613a66565b8181036020830152613cbd818b6137f0565b9050613ccc604083018a613a66565b613cd96060830189613a66565b613ce66080830188613a66565b613cf360a0830187613a66565b613d0060c08301866137a8565b613d0d60e0830185613a66565b613d1b610100830184613a66565b9a9950505050505050505050565b6000606082019050613d3e6000830186613a66565b8181036020830152613d5081856139c0565b9050613d5f6040830184613a66565b949350505050565b600061012082019050613d7d600083018c613a66565b613d8a602083018b613a66565b8181036040830152613d9c818a6137f0565b90508181036060830152613db081896137f0565b9050613dbf6080830188613a66565b613dcc60a0830187613a66565b613dd960c08301866137a8565b613de660e0830185613a75565b613df4610100830184613a66565b9a9950505050505050505050565b6000613e0c613e1d565b9050613e1882826140d8565b919050565b6000604051905090565b600067ffffffffffffffff821115613e4257613e4161423d565b5b613e4b82614280565b9050602081019050919050565b6000819050602082019050919050565b600081519050919050565b600081519050919050565b6000602082019050919050565b600082825260208201905092915050565b600082825260208201905092915050565b600082825260208201905092915050565b6000613ec982614023565b9150613ed483614023565b9250827fffffffffffffffffffffffffffffffffffffffffffffffffffffffffffffffff03821115613f0957613f08614152565b5b828201905092915050565b6000613f1f82614023565b9150613f2a83614023565b925082613f3a57613f39614181565b5b828204905092915050565b6000613f5082614023565b9150613f5b83614023565b9250817fffffffffffffffffffffffffffffffffffffffffffffffffffffffffffffffff0483118215151615613f9457613f93614152565b5b828202905092915050565b6000613faa82614023565b9150613fb583614023565b925082821015613fc857613fc7614152565b5b828203905092915050565b6000613fde82614003565b9050919050565b6000613ff082614003565b9050919050565b60008115159050919050565b600073ffffffffffffffffffffffffffffffffffffffff82169050919050565b6000819050919050565b600060ff82169050919050565b82818337600083830152505050565b60005b8381101561406757808201518184015260208101905061404c565b83811115614076576000848401525b50505050565b600061408782614023565b9150600082141561409b5761409a614152565b5b600182039050919050565b600060028204905060018216806140be57607f821691505b602082108114156140d2576140d16141b0565b5b50919050565b6140e182614280565b810181811067ffffffffffffffff82111715614100576140ff61423d565b5b80604052505050565b600061411482614023565b91507fffffffffffffffffffffffffffffffffffffffffffffffffffffffffffffffff82141561414757614146614152565b5b600182019050919050565b7f4e487b7100000000000000000000000000000000000000000000000000000000600052601160045260246000fd5b7f4e487b7100000000000000000000000000000000000000000000000000000000600052601260045260246000fd5b7f4e487b7100000000000000000000000000000000000000000000000000000000600052602260045260246000fd5b7f4e487b7100000000000000000000000000000000000000000000000000000000600052603160045260246000fd5b7f4e487b7100000000000000000000000000000000000000000000000000000000600052603260045260246000fd5b7f4e487b7100000000000000000000000000000000000000000000000000000000600052604160045260246000fd5b600080fd5b600080fd5b600080fd5b600080fd5b6000601f19601f8301169050919050565b7f596f75206e656564206d6f7265206361736820746f2070617920666f7220746860008201527f697320706c616e00000000000000000000000000000000000000000000000000602082015250565b7f67726f75704944206e6f7420666f756e64000000000000000000000000000000600082015250565b7f506c616e20697320656d70747900000000000000000000000000000000000000600082015250565b7f47726f757020646f6573206e6f74206578697374000000000000000000000000600082015250565b7f596f7520617265206e6f7420616c6c6f77656420746f2063726561746520612060008201527f706c616e00000000000000000000000000000000000000000000000000000000602082015250565b7f47726f75702069732066756c6c20616c72656164790000000000000000000000600082015250565b6143dc81613fd3565b81146143e757600080fd5b50565b6143f381613fe5565b81146143fe57600080fd5b50565b61440a81614023565b811461441557600080fd5b50565b6144218161402d565b811461442c57600080fd5b5056fea26469706673582212207d95948df29c24ebfe57efa42a3d42b6f67778f5d49bcc3c9a6ca8e2e568ce3564736f6c63430008070033",
  "linkReferences": {},
  "deployedLinkReferences": {}
}